:100000000C9458000C9480000C9480000C94800098
:100010000C9480000C9480000C9480000C94800060
:100020000C9480000C9480000C9480000C94800050
:100030000C9480000C9480000C9480000C94800040
:100040000C94FD030C9480000C9480000C948000B0
:100050000C9480000C9480000C9480000C94800020
:100060000C9447040C948000000000002500280038
:100070002B00040404040404040402020202020229
:10008000030303030303010204081020408001025C
:1000900004081020010204081020000000080002DB
:1000A00001000003040700000000000000006605D6
:1000B00011241FBECFEFD8E0DEBFCDBF22E0A0E30A
:1000C000B1E001C01D92AF30B207E1F711E0A0E04E
:1000D000B1E0ECE1F3E102C005900D92A033B1076D
:1000E000D9F710E0C8E5D0E004C02197FE010E94D6
:1000F0009407C735D107C9F70E9486050C948C096F
:100100000C940000089508950895AF92BF92CF9285
:10011000DF92EF92FF920F931F93CF93DF936C01C7
:100120007B018B01040F151FEB015E01AE18BF08A8
:10013000C017D10759F06991D601ED91FC9101905A
:10014000F081E02DC6010995892B79F7C501DF9172
:10015000CF911F910F91FF90EF90DF90CF90BF90C4
:10016000AF90089590E0FC01E656FF4F2491FC010A
:10017000EA57FF4F3491FC01EE58FF4FE491EE2314
:10018000C9F0222339F0233001F1A8F4213019F10C
:10019000223029F1F0E0EE0FFF1FE859FF4FA59143
:1001A000B4918FB7F894EC91611126C030953E233D
:1001B0003C938FBF08952730A9F02830C9F0243030
:1001C00049F7809180008F7D03C0809180008F77F8
:1001D00080938000DFCF84B58F7784BDDBCF84B57B
:1001E0008F7DFBCF8091B0008F778093B000D2CF0E
:1001F0008091B0008F7DF9CF3E2BDACF3FB7F894D6
:100200008091E7019091E801A091E901B091EA01A4
:1002100026B5A89B05C02F3F19F00196A11DB11D61
:100220003FBFBA2FA92F982F8827BC01CD01620F9D
:10023000711D811D911D42E0660F771F881F991F58
:100240004A95D1F708958F929F92AF92BF92CF9225
:10025000DF92EF92FF924B015C010E94FE006B0166
:100260007C010E94FE006C197D098E099F09683E81
:10027000734081059105A8F321E0821A9108A10835
:10028000B10888EEC80E83E0D81EE11CF11C811471
:100290009104A104B10429F7FF90EF90DF90CF9073
:1002A000BF90AF909F908F90089520917101260F7D
:1002B0003327331F21323105ECF42091BA01FC01C0
:1002C00090E080E0243069F082E00895A09171010F
:1002D0002191AC014F5A5E4FA40FB52FB11D2C9345
:1002E0000196861798F380917101680F60937101F0
:1002F00080E0089581E008951092BA0181E0809332
:10030000B9011092940161E082E10E94B20061E0C3
:1003100083E10E94B200E9EBF0E080818E7F808370
:1003200080818D7F808388E48093B80085E480930A
:10033000BC000895CF93DF9391E090935001882300
:10034000B9F0C091B800D091BA008091BC008A7B0E
:100350008093BC0060E082E10E94B20060E083E133
:100360000E94B2000E947C01D093BA00C093B800F2
:10037000DF91CF9108950895E091F2018091F1010C
:10038000E81730F4F0E0E05DFE4F808190E00895E2
:100390008FEF9FEF08959091F2018091F1012FEF7F
:1003A0003FEF981748F4E92FF0E0E05DFE4F208121
:1003B00030E09F5F9093F201C90108958091F101AF
:1003C0009091F201891B990B0895CF92DF92EF92E1
:1003D000FF920F931F93CF93DF937C01CB018A0190
:1003E0002091C001222389F0EB016B01C40ED51EC0
:1003F000CC15DD0569F06991D701ED91FC91019073
:10040000F081E02DC7010995F3CF642F0E945501BB
:10041000C801DF91CF911F910F91FF90EF90DF9076
:10042000CF900895CF93DF931F92CDB7DEB7698346
:100430002091C0012223F9F02091EF01203258F0E1
:1004400021E030E0FC013383228390E080E00F90D4
:10045000DF91CF9108958091F001E82FF0E0EF5304
:10046000FE4F998190838F5F8093F0018093EF011D
:1004700081E090E0ECCF61E0CE0101960E94550151
:10048000F7CFCF92DF92EF92FF920F931F93CF930C
:10049000DF93FC01C48121E02093C001C093E101FE
:1004A0001092F0011092EF018385682B83EF91E0A9
:1004B0000E941202D091EF01D13208F092C00E9446
:1004C000FE006B017C018091BA01811165C082E060
:1004D0008093BA0181E08093B9018FEF8093B801D6
:1004E0001092B701D093B601A1ECB1E0E6E9F1E0DA
:1004F00080E0D81385C01092950180919501CC0FB2
:10050000C82BC093950180919401813009F07CC083
:10051000109294010E94FE006B017C018091950174
:100520008093BB008091BC019091BD01A091BE0160
:10053000B091BF01892B8A2B8B2B99F00E94FE0072
:100540000091BC011091BD012091BE013091BF010D
:100550006C197D098E099F090617170728073907A7
:10056000E0F18091BC0083FDD9CF85EC8093BC0085
:100570000E94FE006B017C018091BA01823009F477
:1005800045C08091B8018F3F61F18091B801803200
:1005900041F18091B80125C08091BC019091BD01CD
:1005A000A091BE01B091BF01892B8A2B8B2B09F43E
:1005B0008ACF0E94FE000091BC011091BD012091E4
:1005C000BE013091BF016C197D098E099F09061784
:1005D00017072807390708F076CF8091BB010E94E2
:1005E0009A011092F0011092EF011092C001DF9178
:1005F000CF911F910F91FF90EF90DF90CF900895D2
:100600009D9191938F5F75CF85EEB0CF8091BC01A6
:100610009091BD01A091BE01B091BF01892B8A2BA1
:100620008B2B09F4A9CF0E94FE000091BC01109110
:10063000BD012091BE013091BF016C197D098E0969
:100640009F09061717072807390708F095CFC5CF68
:1006500090E080E008950F931F93CF93DF93EC0118
:1006600088819981009759F02A813B8126173707A5
:1006700030F081E0DF91CF911F910F9108958B01B0
:100680006F5F7F4F0E94BF08009759F0998388835E
:100690001B830A832C813D81232B59F7FC01108297
:1006A000E8CF80E0E7CF0F931F93CF938C01C62F45
:1006B0000E9441026C2F6460C8010E9441026C2FAD
:1006C0006B7FC8010E94410283EC90E00197F1F733
:1006D000CF911F910F9108950F931F93CF93DF93A5
:1006E0008C01D62FC42F607F642B0E94530380E1BE
:1006F000D89FB00111246C2BC801DF91CF911F91BD
:100700000F910C945303CF93DF93CDB7DEB72897A7
:100710000FB6F894DEBF0FBECDBF98E0E6E0F1E083
:10072000DE01119601900D929A95E1F790910702E2
:10073000981708F48FEF90E0880F991F21E030E0C0
:100740002C0F3D1F820F931FFC016081606840E009
:100750008FEF91E028960FB6F894DEBF0FBECDBFA5
:10076000DF91CF910C946C0340E061E08FEF91E05A
:100770000E946C038BE39FE10197F1F7089541E03C
:100780000E946C0381E090E0089585ED8093BC00A9
:100790008091BC019091BD01A091BE01B091BF01BB
:1007A0000796A11DB11D23E0B695A795979587954E
:1007B0002A95D1F72091BC0024FD03C01092BA0104
:1007C00008954091BC015091BD016091BE017091AE
:1007D000BF01452B462B472B69F30097A105B105B7
:1007E00041F025E32A95F1F700000197A109B1092D
:1007F000E1CF8091BB010C949A011F920F920FB62A
:100800000F9211242F933F938F939F93AF93BF9396
:100810008091E3019091E401A091E501B091E6019E
:100820003091E20123E0230F2D3758F50196A11DE9
:10083000B11D2093E2018093E3019093E401A09322
:10084000E501B093E6018091E7019091E801A09164
:10085000E901B091EA010196A11DB11D8093E70164
:100860009093E801A093E901B093EA01BF91AF91A1
:100870009F918F913F912F910F900FBE0F901F90DE
:10088000189526E8230F0296A11DB11DD2CF1F9205
:100890000F920FB60F9211242F933F934F935F93B4
:1008A0006F937F938F939F93AF93BF93EF93FF9338
:1008B0008091B900887F803609F44AC0F0F588320B
:1008C00009F4A7C018F5803109F49BC0B8F4882357
:1008D00009F4F9C0883009F494C0FF91EF91BF91F9
:1008E000AF919F918F917F916F915F914F913F91C8
:1008F0002F910F900FBE0F901F901895883109F41B
:1009000088C0803251F78093B80114C0803409F454
:100910009DC040F48033B9F38833F9F68093B80171
:1009200085ECB0C0803509F485C0883509F496C0DF
:10093000883499F60E94C503D0CF883909F48CC059
:1009400038F5883729F050F4883611F0803729F6C9
:1009500083E08093BA011092930157C0883809F45C
:100960007BC0803919F0803809F0B7CF80919301AE
:10097000803208F071C0E091930181E08E0F809386
:1009800093018091BB00F0E0ED58FE4F80833DC0A5
:10099000803B39F0E0F4803A09F479C0883A09F0F4
:1009A0009CCF84E08093BA01109272011092710181
:1009B000E091ED01F091EE010995809171018111B5
:1009C0000FC081E0809371011092510109C0803CF9
:1009D00009F4A6CF883C09F4A3CF883B09F07DCF6A
:1009E000E091720181E08E0F80937201F0E0EF5A86
:1009F000FE4F80818093BB009091720180917101C4
:100A000029C0809195018093BB0085EC8093BC0048
:100A100064CF9091B7018091B601981758F5E09195
:100A2000B70181E08E0F8093B701F0E0EA56FE4FE8
:100A30008081E9CFE091B70181E08E0F8093B7010B
:100A40008091BB00F0E0EA56FE4F80839091B701A1
:100A50008091B6019817C8F285E8D8CFE091B70128
:100A600081E08E0F8093B7018091BB00F0E0EA56E1
:100A7000FE4F80838091B90181115CCF81E080932A
:100A8000940184EA8093BC001092BA0126CF85ECD1
:100A90008093BC001092BA0180919301803230F4AF
:100AA000E0919301F0E0ED58FE4F108260919301C8
:100AB00070E0E091EB01F091EC0183E791E00995A2
:100AC000109293010ACF1092B80134CFE3EFF1E016
:100AD0001382128288EE93E0A0E0B0E084839583D5
:100AE000A683B78382E191E091838083EFEFF1E009
:100AF0001382128284E291E09183808387E284836F
:100B000080E1818782E0828713860895CF93DF9307
:100B1000CDB7DEB76E970FB6F894DEBF0FBECDBF70
:100B2000789484B5826084BD84B5816084BD85B5C8
:100B3000826085BD85B5816085BD80916E008160D4
:100B400080936E001092810080918100826080937A
:100B5000810080918100816080938100809180007C
:100B60008160809380008091B10084608093B100A7
:100B70008091B00081608093B00080917A008460A1
:100B800080937A0080917A00826080937A008091CD
:100B90007A00816080937A0080917A0080688093E7
:100BA0007A001092C1001092F2011092F10110929D
:100BB000F0011092EF010E947C0182E890E0909396
:100BC000EE018093ED0183E890E09093EC01809337
:100BD000EB011092040280910902823018F098E033
:100BE000909304028093070262E370E080E090E05B
:100BF0000E94230160910A028FEF91E00E9441025E
:100C000068EE73E080E090E00E94230160E38FEFE4
:100C100091E00E9453030BE416E4C8010197F1F739
:100C200060E38FEF91E00E945303C8010197F1F751
:100C300060E38FEF91E00E94530383E592E0019718
:100C4000F1F760E28FEF91E00E945303609104029C
:100C5000606240E08FEF91E00E946C0384E080933B
:100C6000050240E06CE08FEF91E00E946C030E946F
:100C7000B40382E08093060240E066E08FEF91E0EB
:100C80000E946C0340E062E08FEF91E00E946C03F1
:100C90000BE31FE1C8010197F1F788E080930A0296
:100CA00060E08FEF91E00E9441020E94B40340E0B7
:100CB00062E08FEF91E00E946C03C8010197F1F7A9
:100CC00080E00E94830343E050E06CE271E08FEF2C
:100CD00091E00E94850080E4B82ECE0101967C014F
:100CE00090E0C92E90E0D92E1A8E198E1C8E1B8E84
:100CF0001E8E1D8E70E060E0CE0149960E942B038F
:100D0000298D3A8D811182C02115310519F0C90153
:100D10000E9436081A8E198E1E8E1D8E1C8E1B8EFA
:100D2000B0927C0080917A00806480937A008091F8
:100D30007A0086FDFCCF80917800909179001C8A22
:100D40001B8A1E8A1D8A188E1F8A4AE0B7010E94DC
:100D50002807F70101900020E9F731978F010E195C
:100D60001F09B801CE0143960E942B032B893C89B1
:100D7000811154C02115310519F0C9010E943608AE
:100D80001C8A1B8A188E1F8A1E8A1D8A898D9A8D3D
:100D9000009709F44CC06B897C896115710509F4D1
:100DA00044C04B8D5C8D2F89388D42175307E8F175
:100DB0000E9485098F89988D9E8F8D8F188E1F8A2E
:100DC0008B899C89009711F00E9436080E94B40319
:100DD00081E00E9483034D8D5E8D698D7A8D8FEF4A
:100DE00091E00E94850068EE73E080E090E00E9450
:100DF0002301898D9A8D009711F00E943608C11445
:100E0000D10409F471CF0E9400006ECF1E8E1D8E9A
:100E10006FE271E0C9010E94850982CF188F0F8BA4
:100E2000B701C9010E948509B1CF0E9436088B899C
:100E30009C899A8F898F8D899E899C8F8B8F8F89B2
:100E4000988D9E8F8D8F1C8A1B8A1E8A1D8AB6CF15
:100E5000BB274A3031F4992322F4BDE29095819565
:100E60009F4F0C943407BB27FB015527AA27880FF7
:100E7000991FAA1FA41710F0A41B83955051B9F70E
:100E8000A05DAA3308F0A95DA193009779F7B1118D
:100E9000B1931192CB010C944D07DC01FC01672F3B
:100EA00071917723E1F7329704C07C916D93708341
:100EB0006291AE17BF07C8F308952F923F924F92E9
:100EC0005F926F927F928F929F92AF92BF92CF92DA
:100ED000DF92EF92FF920F931F93CF93DF93CDB7E3
:100EE000DEB7CA1BDB0B0FB6F894DEBF0FBECDBF5B
:100EF00009942A88398848885F846E847D848C842C
:100F00009B84AA84B984C884DF80EE80FD800C8134
:100F10001B81AA81B981CE0FD11D0FB6F894DEBF17
:100F20000FBECDBFED010895EE0FFF1F0590F491A8
:100F3000E02D09940F931F93CF93DF938230910597
:100F400010F482E090E0E0910D02F0910E0230E0AA
:100F500020E0B0E0A0E0309799F42115310509F4C4
:100F60004AC0281B390B24303105D8F58A819B8172
:100F70006115710589F1FB0193838283FE0111C024
:100F8000408151810281138148175907E0F04817C9
:100F9000590799F4109761F012960C9312971396D3
:100FA0001C933296CF01DF91CF911F910F9108953D
:100FB00000930D0210930E02F4CF2115310551F06C
:100FC0004217530738F0A901DB019A01BD01DF0187
:100FD000F801C1CFEF01F9CF90930E0280930D027B
:100FE000CDCFFE01E20FF31F81939193225031097F
:100FF00039832883D7CF20910B0230910C02232B09
:1010000041F4209102013091030130930C022093AE
:101010000B0220910001309101012115310541F4AD
:101020002DB73EB74091040150910501241B350BAB
:10103000E0910B02F0910C02E217F307A0F42E1BD3
:101040003F0B2817390778F0AC014E5F5F4F24172C
:10105000350748F04E0F5F1F50930C0240930B0270
:10106000819391939FCFF0E0E0E09CCFCF93DF930B
:101070000097E9F0FC01329713821282A0910D02D1
:10108000B0910E02ED0130E020E01097A1F4208134
:101090003181820F931F20910B0230910C0228178F
:1010A000390709F061C0F0930C02E0930B02DF9165
:1010B000CF910895EA01CE17DF07E8F54A815B81F9
:1010C0009E0141155105B1F7E901FB83EA8349917E
:1010D0005991C40FD51FEC17FD0761F480819181F0
:1010E0000296840F951FE9019983888382819381F9
:1010F0009B838A83F0E0E0E012968D919C91139798
:101100000097B9F52D913C911197CD010296820F70
:10111000931F20910B0230910C022817390739F6E2
:10112000309751F510920E0210920D02B0930C02FE
:10113000A0930B02BCCFD383C28340815181840F23
:10114000951FC817D90761F44E5F5F4F8881998159
:10115000480F591F518340838A819B8193838283E7
:101160002115310509F0B0CFF0930E02E0930D0286
:101170009ECFFD01DC01C0CF13821282D7CFB0E039
:10118000A0E0E5ECF8E00C945F078C01009751F4C7
:10119000CB010E949A078C01C801CDB7DEB7E0E110
:1011A0000C947B07FC01E60FF71F9C0122503109CC
:1011B000E217F30708F49DC0D901CD91DC91119796
:1011C000C617D70798F0C530D10530F3CE01049784
:1011D0008617970708F3C61BD70B2297C193D193A5
:1011E0006D937C93CF010E943608D6CF5B01AC1A79
:1011F000BD0A4C018C0E9D1EA0910D02B0910E02F5
:10120000512C412CF12CE12C109731F580910B02DF
:1012100090910C028815990509F05CC04616570696
:1012200008F058C08091000190910101009741F4AD
:101230008DB79EB74091040150910501841B950B19
:10124000E817F90708F055C0F0930C02E0930B0281
:10125000F90171836083A0CF8D919C9111971296B3
:101260006C90129713967C901397A815B90559F5B1
:101270006C0142E0C40ED11CCA14DB0420F1AC01A5
:101280004A195B09DA011296159780F0628273821F
:1012900051834083D9016D937C93E114F10471F083
:1012A000D7011396FC93EE93129776CF22968C0F6C
:1012B0009D1FF90191838083F301EFCFF0930E021C
:1012C000E0930D0269CF4816590608F42C017D0100
:1012D000D3019ACFCB010E949A077C01009749F075
:1012E000AE01B8010E947C09C8010E94360887013E
:1012F00053CF10E000E050CFFB01DC0102C00190B1
:101300000D9241505040D8F70895FB01DC01019047
:0C1310000D920020E1F70895F894FFCF43
:10131C0000000F0280000000400014005400000088
:10132C0000001202E5012803BB01DE01CB01BC0168
:10133C0000000000BF0385002803840041444300E3
:00000001FF
