:100000000C9458000C9480000C9480000C94800098
:100010000C9480000C9480000C9480000C94800060
:100020000C9480000C9480000C9480000C94800050
:100030000C9480000C9480000C9480000C94800040
:100040000C9499030C9480000C9480000C94800014
:100050000C9480000C9480000C9480000C94800020
:100060000C94E3030C94800000000000250028009D
:100070002B00040404040404040402020202020229
:10008000030303030303010204081020408001025C
:1000900004081020010204081020000000080002DB
:1000A000010000030407000000000000000002053A
:1000B00011241FBECFEFD8E0DEBFCDBF11E0A0E01E
:1000C000B1E0E2E4FCE002C005900D92AE32B1076F
:1000D000D9F722E0AEE2B1E001C01D92A930B2072B
:1000E000E1F710E0C8E5D0E004C02197FE010E94CE
:1000F0001906C735D107C9F70E9422050C941F06BF
:100100000C94000008950895AF92BF92CF92DF92B1
:10011000EF92FF920F931F93CF93DF936C017B01BC
:100120008B01040F151FEB015E01AE18BF08C0174D
:10013000D10759F06991D601ED91FC910190F081C0
:10014000E02DC6010995892B79F7C501DF91CF9183
:100150001F910F91FF90EF90DF90CF90BF90AF90E5
:10016000089590E0FC01E656FF4F2491FC01EA5708
:10017000FF4F3491FC01EE58FF4FE491EE23C9F09C
:10018000222339F0233001F1A8F4213019F1223073
:1001900029F1F0E0EE0FFF1FE859FF4FA591B49150
:1001A0008FB7F894EC91611126C030953E233C93B3
:1001B0008FBF08952730A9F02830C9F0243049F7BF
:1001C000809180008F7D03C0809180008F77809325
:1001D0008000DFCF84B58F7784BDDBCF84B58F7D82
:1001E000FBCF8091B0008F778093B000D2CF809109
:1001F000B0008F7DF9CF3E2BDACF3FB7F8948091D6
:10020000E5019091E601A091E701B091E80126B5E2
:10021000A89B05C02F3F19F00196A11DB11D3FBF3E
:10022000BA2FA92F982F8827BC01CD01620F711D0D
:10023000811D911D42E0660F771F881F991F4A9507
:10024000D1F708958F929F92AF92BF92CF92DF9293
:10025000EF92FF924B015C010E94FD006B017C015B
:100260000E94FD006C197D098E099F09683E73404C
:1002700081059105A8F321E0821A9108A108B1082F
:1002800088EEC80E83E0D81EE11CF11C8114910495
:10029000A104B10429F7FF90EF90DF90CF90BF90B9
:1002A000AF909F908F900895089520916F01260F31
:1002B0003327331F21323105ECF42091B801FC01C2
:1002C00090E080E0243069F082E00895A0916F0111
:1002D0002191AC01415B5E4FA40FB52FB11D2C9352
:1002E0000196861798F380916F01680F60936F01F4
:1002F00080E0089581E008951092B80181E0809334
:10030000B7011092920161E082E10E94B10061E0C8
:1003100083E10E94B100E9EBF0E080818E7F808371
:1003200080818D7F808388E48093B80085E480930A
:10033000BC000895CF93DF9391E090934E01882302
:10034000B9F0C091B800D091BA008091BC008A7B0E
:100350008093BC0060E082E10E94B10060E083E134
:100360000E94B1000E947C01D093BA00C093B800F3
:10037000DF91CF9108950895E091F0018091EF0110
:10038000E81730F4F0E0E25DFE4F808190E00895E0
:100390008FEF9FEF08959091F0018091EF012FEF83
:1003A0003FEF981748F4E92FF0E0E25DFE4F20811F
:1003B00030E09F5F9093F001C90108958091EF01B3
:1003C0009091F001891B990B0895CF92DF92EF92E3
:1003D000FF920F931F93CF93DF937C01CB018A0190
:1003E0002091BE01222389F0EB016B01C40ED51EC2
:1003F000CC15DD0569F06991D701ED91FC91019073
:10040000F081E02DC7010995F3CF642F0E945501BB
:10041000C801DF91CF911F910F91FF90EF90DF9076
:10042000CF900895CF93DF931F92CDB7DEB7698346
:100430002091BE012223F9F02091ED01203258F0E5
:1004400021E030E0FC013383228390E080E00F90D4
:10045000DF91CF9108958091EE01E82FF0E0E15413
:10046000FE4F998190838F5F8093EE018093ED0121
:1004700081E090E0ECCF61E0CE0101960E94550151
:10048000F7CFCF92DF92EF92FF920F931F93CF930C
:10049000DF93FC01C48121E02093BE01C093DF0102
:1004A0001092EE011092ED018385682B81EF91E0AF
:1004B0000E941202D091ED01D13208F092C00E9448
:1004C000FD006B017C018091B801811165C082E063
:1004D0008093B80181E08093B7018FEF8093B601DC
:1004E0001092B501D093B401AFEBB1E0E4E9F1E0D3
:1004F00080E0D81385C01092930180919301CC0FB6
:10050000C82BC093930180919201813009F07CC087
:10051000109292010E94FD006B017C018091930179
:100520008093BB008091BA019091BB01A091BC0166
:10053000B091BD01892B8A2B8B2B99F00E94FD0075
:100540000091BA011091BB012091BC013091BD0115
:100550006C197D098E099F090617170728073907A7
:10056000E0F18091BC0083FDD9CF85EC8093BC0085
:100570000E94FD006B017C018091B801823009F47A
:1005800045C08091B6018F3F61F18091B601803204
:1005900041F18091B60125C08091BA019091BB01D3
:1005A000A091BC01B091BD01892B8A2B8B2B09F442
:1005B0008ACF0E94FD000091BA011091BB012091E9
:1005C000BC013091BD016C197D098E099F09061788
:1005D00017072807390708F076CF8091B9010E94E4
:1005E0009A011092EE011092ED011092BE01DF917E
:1005F000CF911F910F91FF90EF90DF90CF900895D2
:100600009D9191938F5F75CF85EEB0CF8091BA01A8
:100610009091BB01A091BC01B091BD01892B8A2BA7
:100620008B2B09F4A9CF0E94FD000091BA01109113
:10063000BB012091BC013091BD016C197D098E096F
:100640009F09061717072807390708F095CFC5CF68
:1006500090E080E008950F931F93CF938C01C62FF5
:100660000E9441026C2F6460C8010E9441026C2FFD
:100670006B7FC8010E94410283EC90E00197F1F783
:10068000CF911F910F9108950F931F93CF93DF93F5
:100690008C01D62FC42F607F642B0E942B0380E136
:1006A000D89FB00111246C2BC801DF91CF911F910D
:1006B0000F910C942B0341E00E94440381E090E0F1
:1006C000089585ED8093BC008091BA019091BB01A3
:1006D000A091BC01B091BD010796A11DB11D23E001
:1006E000B695A795979587952A95D1F72091BC0047
:1006F00024FD03C01092B80108954091BA015091B1
:10070000BB016091BC017091BD01452B462B472B6D
:1007100069F30097A105B10541F025E32A95F1F7AA
:1007200000000197A109B109E1CF8091B9010C94B2
:100730009A011F920F920FB60F9211242F933F939D
:100740008F939F93AF93BF938091E1019091E201CA
:10075000A091E301B091E4013091E00123E0230F87
:100760002D3758F50196A11DB11D2093E00180930E
:10077000E1019093E201A093E301B093E401809141
:10078000E5019091E601A091E701B091E8010196A1
:10079000A11DB11D8093E5019093E601A093E701AF
:1007A000B093E801BF91AF919F918F913F912F91AD
:1007B0000F900FBE0F901F90189526E8230F0296FA
:1007C000A11DB11DD2CF1F920F920FB60F9211240F
:1007D0002F933F934F935F936F937F938F939F9349
:1007E000AF93BF93EF93FF938091B900887F8036DA
:1007F00009F44AC0F0F5883209F4A7C018F5803131
:1008000009F49BC0B8F4882309F4F9C0883009F4CE
:1008100094C0FF91EF91BF91AF919F918F917F9184
:100820006F915F914F913F912F910F900FBE0F905D
:100830001F901895883109F488C0803251F7809351
:10084000B60114C0803409F49DC040F48033B9F37C
:100850008833F9F68093B60185ECB0C0803509F491
:1008600085C0883509F496C0883499F60E946103E2
:10087000D0CF883909F48CC038F5883729F050F486
:10088000883611F0803729F683E08093B801109202
:10089000910157C0883809F47BC0803919F080383D
:1008A00009F0B7CF80919101803208F071C0E091DA
:1008B000910181E08E0F809391018091BB00F0E067
:1008C000EF58FE4F80833DC0803B39F0E0F4803A22
:1008D00009F479C0883A09F09CCF84E08093B8018C
:1008E0001092700110926F01E091EB01F091EC0118
:1008F000099580916F0181110FC081E080936F0194
:1009000010924F0109C0803C09F4A6CF883C09F43D
:10091000A3CF883B09F07DCFE091700181E08E0F7D
:1009200080937001F0E0E15BFE4F80818093BB001B
:100930009091700180916F0129C080919301809303
:10094000BB0085EC8093BC0064CF9091B501809191
:10095000B401981758F5E091B50181E08E0F8093AE
:10096000B501F0E0EC56FE4F8081E9CFE091B50192
:1009700081E08E0F8093B5018091BB00F0E0EC56D2
:10098000FE4F80839091B5018091B4019817C8F211
:1009900085E8D8CFE091B50181E08E0F8093B50155
:1009A0008091BB00F0E0EC56FE4F80838091B70150
:1009B00081115CCF81E08093920184EA8093BC0036
:1009C0001092B80126CF85EC8093BC001092B8013C
:1009D00080919101803230F4E0919101F0E0EF5884
:1009E000FE4F10826091910170E0E091E901F09179
:1009F000EA0181E791E00995109291010ACF1092E6
:100A0000B60134CFE1EFF1E01382128288EE93E079
:100A1000A0E0B0E084839583A683B78384E091E06F
:100A200091838083EDEFF1E01382128286E191E001
:100A30009183808387E2848380E1818782E082875B
:100A400013860895789484B5826084BD84B58160EE
:100A500084BD85B5826085BD85B5816085BD809189
:100A60006E00816080936E00109281008091810001
:100A700082608093810080918100816080938100F9
:100A8000809180008160809380008091B1008460BB
:100A90008093B1008091B00081608093B00080911C
:100AA0007A00846080937A0080917A0082608093DB
:100AB0007A0080917A00816080937A0080917A0038
:100AC000806880937A001092C1001092F001109219
:100AD000EF011092EE011092ED010E947C0182E87C
:100AE00090E09093EC018093EB0183E890E0909389
:100AF000EA018093E901109202028091070282309C
:100B000018F098E0909302028093050262E370E08F
:100B100080E090E00E942201609108028DEF91E058
:100B20000E94410268EE73E080E090E00E942201A2
:100B300060E38DEF91E00E942B03CBE4D6E4CE017D
:100B40000197F1F760E38DEF91E00E942B0321976D
:100B5000F1F760E38DEF91E00E942B0383E592E0D3
:100B60000197F1F760E28DEF91E00E942B03609115
:100B70000202606240E08DEF91E00E94440384E055
:100B80008093030240E06CE08DEF91E00E9444030B
:100B900040E061E08DEF91E00E944403CBE3DFE1B0
:100BA000CE010197F1F782E08093040240E066E015
:100BB0008DEF91E00E94440340E062E08DEF91E010
:100BC0000E944403CE010197F1F788E08093080268
:100BD00060E08DEF91E00E94410240E061E08DEF26
:100BE00091E00E944403CE010197F1F740E062E0FA
:100BF0008DEF91E00E9444032197F1F740E060E817
:100C00008DEF91E00E9444034FE050E06EE171E00F
:100C10008DEF91E00E94840068EE73E080E090E048
:100C20000E942201C0E0D0E02097F1F30E94000072
:100C3000FBCFEE0FFF1F0590F491E02D0994F8947F
:020C4000FFCFE4
:100C4200000000001202E5012803BB01DE01CB0116
:100C5200BC01000000005B03840028035401486FBC
:0E0C62006D65206175746F6D6174696F6E0051
:00000001FF
